{
  "contractName": "TicTacToe",
  "abi": [
    {
      "constant": true,
      "inputs": [
        {
          "name": "",
          "type": "uint256"
        }
      ],
      "name": "games",
      "outputs": [
        {
          "name": "gameId",
          "type": "uint256"
        },
        {
          "name": "name",
          "type": "bytes32"
        },
        {
          "name": "ownerAddr",
          "type": "address"
        },
        {
          "name": "state",
          "type": "uint8"
        },
        {
          "name": "moveCounter",
          "type": "uint256"
        },
        {
          "name": "playerOAddr",
          "type": "address"
        },
        {
          "name": "playerXAddr",
          "type": "address"
        },
        {
          "name": "winnerAddr",
          "type": "address"
        }
      ],
      "payable": false,
      "stateMutability": "view",
      "type": "function"
    },
    {
      "constant": true,
      "inputs": [
        {
          "name": "",
          "type": "uint256"
        }
      ],
      "name": "bets",
      "outputs": [
        {
          "name": "betId",
          "type": "uint256"
        },
        {
          "name": "gameId",
          "type": "uint256"
        },
        {
          "name": "value",
          "type": "uint256"
        },
        {
          "name": "state",
          "type": "uint8"
        },
        {
          "name": "bettorOnOAddr",
          "type": "address"
        },
        {
          "name": "bettorOnXAddr",
          "type": "address"
        }
      ],
      "payable": false,
      "stateMutability": "view",
      "type": "function"
    },
    {
      "constant": true,
      "inputs": [
        {
          "name": "",
          "type": "address"
        }
      ],
      "name": "players",
      "outputs": [
        {
          "name": "name",
          "type": "bytes32"
        }
      ],
      "payable": false,
      "stateMutability": "view",
      "type": "function"
    },
    {
      "anonymous": false,
      "inputs": [
        {
          "indexed": false,
          "name": "wasSuccess",
          "type": "bool"
        },
        {
          "indexed": false,
          "name": "gameId",
          "type": "uint256"
        },
        {
          "indexed": false,
          "name": "state",
          "type": "uint8"
        },
        {
          "indexed": false,
          "name": "message",
          "type": "string"
        }
      ],
      "name": "GameCreated",
      "type": "event"
    },
    {
      "anonymous": false,
      "inputs": [
        {
          "indexed": false,
          "name": "wasSuccess",
          "type": "bool"
        },
        {
          "indexed": false,
          "name": "gameId",
          "type": "uint256"
        },
        {
          "indexed": false,
          "name": "state",
          "type": "uint8"
        },
        {
          "indexed": false,
          "name": "playerName",
          "type": "bytes32"
        },
        {
          "indexed": false,
          "name": "symbol",
          "type": "string"
        }
      ],
      "name": "Joined",
      "type": "event"
    },
    {
      "anonymous": false,
      "inputs": [
        {
          "indexed": false,
          "name": "wasSuccess",
          "type": "bool"
        },
        {
          "indexed": false,
          "name": "gameId",
          "type": "uint256"
        },
        {
          "indexed": false,
          "name": "state",
          "type": "uint8"
        },
        {
          "indexed": false,
          "name": "playerName",
          "type": "bytes32"
        },
        {
          "indexed": false,
          "name": "symbol",
          "type": "string"
        }
      ],
      "name": "Left",
      "type": "event"
    },
    {
      "anonymous": false,
      "inputs": [
        {
          "indexed": false,
          "name": "wasSuccess",
          "type": "bool"
        },
        {
          "indexed": false,
          "name": "gameId",
          "type": "uint256"
        },
        {
          "indexed": false,
          "name": "state",
          "type": "uint8"
        },
        {
          "indexed": false,
          "name": "message",
          "type": "string"
        }
      ],
      "name": "GameStarted",
      "type": "event"
    },
    {
      "anonymous": false,
      "inputs": [
        {
          "indexed": false,
          "name": "success",
          "type": "bool"
        },
        {
          "indexed": false,
          "name": "gameId",
          "type": "uint256"
        },
        {
          "indexed": false,
          "name": "state",
          "type": "uint8"
        },
        {
          "indexed": false,
          "name": "x",
          "type": "uint256"
        },
        {
          "indexed": false,
          "name": "y",
          "type": "uint256"
        },
        {
          "indexed": false,
          "name": "symbol",
          "type": "string"
        }
      ],
      "name": "MoveMade",
      "type": "event"
    },
    {
      "anonymous": false,
      "inputs": [
        {
          "indexed": false,
          "name": "wasSuccess",
          "type": "bool"
        },
        {
          "indexed": false,
          "name": "betId",
          "type": "uint256"
        },
        {
          "indexed": false,
          "name": "state",
          "type": "uint8"
        },
        {
          "indexed": false,
          "name": "message",
          "type": "string"
        }
      ],
      "name": "BetCreated",
      "type": "event"
    },
    {
      "anonymous": false,
      "inputs": [
        {
          "indexed": false,
          "name": "wasSuccess",
          "type": "bool"
        },
        {
          "indexed": false,
          "name": "betId",
          "type": "uint256"
        },
        {
          "indexed": false,
          "name": "state",
          "type": "uint8"
        },
        {
          "indexed": false,
          "name": "symbol",
          "type": "string"
        }
      ],
      "name": "JoinedBet",
      "type": "event"
    },
    {
      "constant": false,
      "inputs": [
        {
          "name": "gameName",
          "type": "bytes32"
        },
        {
          "name": "playerName",
          "type": "bytes32"
        }
      ],
      "name": "createGame",
      "outputs": [],
      "payable": false,
      "stateMutability": "nonpayable",
      "type": "function"
    },
    {
      "constant": true,
      "inputs": [],
      "name": "getGameIds",
      "outputs": [
        {
          "name": "gameIds",
          "type": "uint256[]"
        }
      ],
      "payable": false,
      "stateMutability": "view",
      "type": "function"
    },
    {
      "constant": true,
      "inputs": [],
      "name": "getGames",
      "outputs": [
        {
          "name": "gameIds",
          "type": "uint256[]"
        },
        {
          "name": "gameStates",
          "type": "uint8[]"
        },
        {
          "name": "gameNames",
          "type": "bytes32[]"
        },
        {
          "name": "owners",
          "type": "address[]"
        },
        {
          "name": "ownerNames",
          "type": "bytes32[]"
        },
        {
          "name": "playerXs",
          "type": "address[]"
        },
        {
          "name": "playerOs",
          "type": "address[]"
        }
      ],
      "payable": false,
      "stateMutability": "view",
      "type": "function"
    },
    {
      "constant": true,
      "inputs": [],
      "name": "getBets",
      "outputs": [
        {
          "name": "betIds",
          "type": "uint256[]"
        },
        {
          "name": "gameIds",
          "type": "uint256[]"
        },
        {
          "name": "betStates",
          "type": "uint8[]"
        },
        {
          "name": "values",
          "type": "uint256[]"
        },
        {
          "name": "bettorOnXAddr",
          "type": "address[]"
        },
        {
          "name": "bettorOnOAddr",
          "type": "address[]"
        }
      ],
      "payable": false,
      "stateMutability": "view",
      "type": "function"
    },
    {
      "constant": false,
      "inputs": [
        {
          "name": "gameId",
          "type": "uint256"
        },
        {
          "name": "playerName",
          "type": "bytes32"
        }
      ],
      "name": "joinGame",
      "outputs": [],
      "payable": false,
      "stateMutability": "nonpayable",
      "type": "function"
    },
    {
      "constant": false,
      "inputs": [
        {
          "name": "gameId",
          "type": "uint256"
        }
      ],
      "name": "leaveGame",
      "outputs": [],
      "payable": false,
      "stateMutability": "nonpayable",
      "type": "function"
    },
    {
      "constant": false,
      "inputs": [
        {
          "name": "gameId",
          "type": "uint256"
        }
      ],
      "name": "startGame",
      "outputs": [],
      "payable": false,
      "stateMutability": "nonpayable",
      "type": "function"
    },
    {
      "constant": true,
      "inputs": [
        {
          "name": "gameId",
          "type": "uint256"
        }
      ],
      "name": "getBoard",
      "outputs": [
        {
          "name": "boardRep",
          "type": "uint8[9]"
        }
      ],
      "payable": false,
      "stateMutability": "view",
      "type": "function"
    },
    {
      "constant": false,
      "inputs": [
        {
          "name": "gameId",
          "type": "uint256"
        },
        {
          "name": "x",
          "type": "uint256"
        },
        {
          "name": "y",
          "type": "uint256"
        }
      ],
      "name": "playMove",
      "outputs": [],
      "payable": false,
      "stateMutability": "nonpayable",
      "type": "function"
    },
    {
      "constant": false,
      "inputs": [
        {
          "name": "gameId",
          "type": "uint256"
        },
        {
          "name": "bettingOnX",
          "type": "bool"
        }
      ],
      "name": "createBet",
      "outputs": [],
      "payable": true,
      "stateMutability": "payable",
      "type": "function"
    },
    {
      "constant": true,
      "inputs": [],
      "name": "getBetIds",
      "outputs": [
        {
          "name": "betIds",
          "type": "uint256[]"
        }
      ],
      "payable": false,
      "stateMutability": "view",
      "type": "function"
    },
    {
      "constant": false,
      "inputs": [
        {
          "name": "betId",
          "type": "uint256"
        }
      ],
      "name": "joinBet",
      "outputs": [],
      "payable": true,
      "stateMutability": "payable",
      "type": "function"
    },
    {
      "constant": false,
      "inputs": [
        {
          "name": "betId",
          "type": "uint256"
        }
      ],
      "name": "withdrawBet",
      "outputs": [],
      "payable": false,
      "stateMutability": "nonpayable",
      "type": "function"
    }
  ],
  "bytecode": "0x60806040526000600155600060045534801561001a57600080fd5b5061522e8061002a6000396000f3006080604052600436106100e6576000357c0100000000000000000000000000000000000000000000000000000000900463ffffffff168063117a5b90146100eb57806321a165191461022357806322af00fa1461028f57806339fb3f45146103595780633feef58a1461037957806345e09e54146103a6578063672fcd821461040f5780636946bb5d1461043b5780639afa23771461047a5780639f668bba146104bb578063a2b1a2cc14610527578063a6afd5fd14610554578063ac95267114610728578063c04c594714610763578063e2eb41ff1461097f578063e5ed1d59146109de575b600080fd5b3480156100f757600080fd5b5061011660048036038101908080359060200190929190505050610a0b565b6040518089815260200188600019166000191681526020018773ffffffffffffffffffffffffffffffffffffffff1673ffffffffffffffffffffffffffffffffffffffff16815260200186600981111561016c57fe5b60ff1681526020018581526020018473ffffffffffffffffffffffffffffffffffffffff1673ffffffffffffffffffffffffffffffffffffffff1681526020018373ffffffffffffffffffffffffffffffffffffffff1673ffffffffffffffffffffffffffffffffffffffff1681526020018273ffffffffffffffffffffffffffffffffffffffff1673ffffffffffffffffffffffffffffffffffffffff1681526020019850505050505050505060405180910390f35b34801561022f57600080fd5b50610238610ae0565b6040518080602001828103825283818151815260200191508051906020019060200280838360005b8381101561027b578082015181840152602081019050610260565b505050509050019250505060405180910390f35b34801561029b57600080fd5b506102ba60048036038101908080359060200190929190505050610b38565b604051808781526020018681526020018581526020018460058111156102dc57fe5b60ff1681526020018373ffffffffffffffffffffffffffffffffffffffff1673ffffffffffffffffffffffffffffffffffffffff1681526020018273ffffffffffffffffffffffffffffffffffffffff1673ffffffffffffffffffffffffffffffffffffffff168152602001965050505050505060405180910390f35b61037760048036038101908080359060200190929190505050610bc1565b005b34801561038557600080fd5b506103a460048036038101908080359060200190929190505050611161565b005b3480156103b257600080fd5b506103d160048036038101908080359060200190929190505050611ba8565b6040518082600960200280838360005b838110156103fc5780820151818401526020810190506103e1565b5050505090500191505060405180910390f35b61043960048036038101908080359060200190929190803515159060200190929190505050611d14565b005b34801561044757600080fd5b5061047860048036038101908080356000191690602001909291908035600019169060200190929190505050612071565b005b34801561048657600080fd5b506104b96004803603810190808035906020019092919080359060200190929190803590602001909291905050506121fb565b005b3480156104c757600080fd5b506104d0612c75565b6040518080602001828103825283818151815260200191508051906020019060200280838360005b838110156105135780820151818401526020810190506104f8565b505050509050019250505060405180910390f35b34801561053357600080fd5b5061055260048036038101908080359060200190929190505050612ccd565b005b34801561056057600080fd5b5061056961315c565b6040518080602001806020018060200180602001806020018060200187810387528d818151815260200191508051906020019060200280838360005b838110156105c05780820151818401526020810190506105a5565b5050505090500187810386528c818151815260200191508051906020019060200280838360005b838110156106025780820151818401526020810190506105e7565b5050505090500187810385528b818151815260200191508051906020019060200280838360005b83811015610644578082015181840152602081019050610629565b5050505090500187810384528a818151815260200191508051906020019060200280838360005b8381101561068657808201518184015260208101905061066b565b50505050905001878103835289818151815260200191508051906020019060200280838360005b838110156106c85780820151818401526020810190506106ad565b50505050905001878103825288818151815260200191508051906020019060200280838360005b8381101561070a5780820151818401526020810190506106ef565b505050509050019c5050505050505050505050505060405180910390f35b34801561073457600080fd5b50610761600480360381019080803590602001909291908035600019169060200190929190505050613546565b005b34801561076f57600080fd5b50610778613bd9565b604051808060200180602001806020018060200180602001806020018060200188810388528f818151815260200191508051906020019060200280838360005b838110156107d35780820151818401526020810190506107b8565b5050505090500188810387528e818151815260200191508051906020019060200280838360005b838110156108155780820151818401526020810190506107fa565b5050505090500188810386528d818151815260200191508051906020019060200280838360005b8381101561085757808201518184015260208101905061083c565b5050505090500188810385528c818151815260200191508051906020019060200280838360005b8381101561089957808201518184015260208101905061087e565b5050505090500188810384528b818151815260200191508051906020019060200280838360005b838110156108db5780820151818401526020810190506108c0565b5050505090500188810383528a818151815260200191508051906020019060200280838360005b8381101561091d578082015181840152602081019050610902565b50505050905001888103825289818151815260200191508051906020019060200280838360005b8381101561095f578082015181840152602081019050610944565b505050509050019e50505050505050505050505050505060405180910390f35b34801561098b57600080fd5b506109c0600480360381019080803573ffffffffffffffffffffffffffffffffffffffff1690602001909291905050506141fc565b60405180826000191660001916815260200191505060405180910390f35b3480156109ea57600080fd5b50610a096004803603810190808035906020019092919050505061421a565b005b60026020528060005260406000206000915090508060000154908060010154908060020160009054906101000a900473ffffffffffffffffffffffffffffffffffffffff16908060020160149054906101000a900460ff16908060030154908060040160009054906101000a900473ffffffffffffffffffffffffffffffffffffffff16908060050160009054906101000a900473ffffffffffffffffffffffffffffffffffffffff16908060060160009054906101000a900473ffffffffffffffffffffffffffffffffffffffff16905088565b60606006805480602002602001604051908101604052809291908181526020018280548015610b2e57602002820191906000526020600020905b815481526020019060010190808311610b1a575b5050505050905090565b60056020528060005260406000206000915090508060000154908060010154908060020154908060030160009054906101000a900460ff16908060030160019054906101000a900473ffffffffffffffffffffffffffffffffffffffff16908060040160009054906101000a900473ffffffffffffffffffffffffffffffffffffffff16905086565b600060056000838152602001908152602001600020905060006005811115610be557fe5b8160030160009054906101000a900460ff166005811115610c0257fe5b14151515610c78576040517f08c379a00000000000000000000000000000000000000000000000000000000081526004018080602001828103825260178152602001807f5468652062657420646f6573206e6f742065786973742e00000000000000000081525060200191505060405180910390fd5b60036005811115610c8557fe5b8160030160009054906101000a900460ff166005811115610ca257fe5b101515610d17576040517f08c379a000000000000000000000000000000000000000000000000000000000815260040180806020018281038252601e8152602001807f4e6f7420706f737369626c6520746f206a6f696e2074686973206265742e000081525060200191505060405180910390fd5b806002015434141515610d92576040517f08c379a000000000000000000000000000000000000000000000000000000000815260040180806020018281038252601a8152602001807f4e6f7420657175616c20616d6f756e74206f662076616c75652e00000000000081525060200191505060405180910390fd5b60076009811115610d9f57fe5b600260008360010154815260200190815260200160002060020160149054906101000a900460ff166009811115610dd257fe5b101515610e47576040517f08c379a00000000000000000000000000000000000000000000000000000000081526004018080602001828103825260198152602001807f47616d6520697320616c72656164792066696e69736865642e0000000000000081525060200191505060405180910390fd5b60016005811115610e5457fe5b8160030160009054906101000a900460ff166005811115610e7157fe5b1415610f87573373ffffffffffffffffffffffffffffffffffffffff168160030160019054906101000a900473ffffffffffffffffffffffffffffffffffffffff1673ffffffffffffffffffffffffffffffffffffffff1614151515610f3f576040517f08c379a000000000000000000000000000000000000000000000000000000000815260040180806020018281038252601b8152602001807f53616d652061646472657373206f6e20626f74682073696465732e000000000081525060200191505060405180910390fd5b338160040160006101000a81548173ffffffffffffffffffffffffffffffffffffffff021916908373ffffffffffffffffffffffffffffffffffffffff160217905550611093565b3373ffffffffffffffffffffffffffffffffffffffff168160040160009054906101000a900473ffffffffffffffffffffffffffffffffffffffff1673ffffffffffffffffffffffffffffffffffffffff161415151561104f576040517f08c379a000000000000000000000000000000000000000000000000000000000815260040180806020018281038252601b8152602001807f53616d652061646472657373206f6e20626f74682073696465732e000000000081525060200191505060405180910390fd5b338160030160016101000a81548173ffffffffffffffffffffffffffffffffffffffff021916908373ffffffffffffffffffffffffffffffffffffffff1602179055505b60048160030160006101000a81548160ff021916908360058111156110b457fe5b02179055507f1ffe602f0b37ea213e1a884b30a4e977b47cfb2d9c5b39ad0c4c8c641448607c6001838360030160009054906101000a900460ff16604051808415151515815260200183815260200182600581111561110f57fe5b60ff168152602001806020018281038252600a8152602001807f4a6f696e6564204265740000000000000000000000000000000000000000000081525060200194505050505060405180910390a15050565b60006002600083815260200190815260200160002090506000600981111561118557fe5b8160020160149054906101000a900460ff1660098111156111a257fe5b14151515611218576040517f08c379a00000000000000000000000000000000000000000000000000000000081526004018080602001828103825260188152602001807f5468652067616d6520646f6573206e6f742065786973742e000000000000000081525060200191505060405180910390fd5b6004600981111561122557fe5b8160020160149054906101000a900460ff16600981111561124257fe5b111515156112b8576040517f08c379a000000000000000000000000000000000000000000000000000000000815260040180806020018281038252601c8152602001807f5468652067616d6520697320616c726561647920737461727465642e0000000081525060200191505060405180910390fd5b3373ffffffffffffffffffffffffffffffffffffffff168160040160009054906101000a900473ffffffffffffffffffffffffffffffffffffffff1673ffffffffffffffffffffffffffffffffffffffff16148061136557503373ffffffffffffffffffffffffffffffffffffffff168160050160009054906101000a900473ffffffffffffffffffffffffffffffffffffffff1673ffffffffffffffffffffffffffffffffffffffff16145b15156113d9576040517f08c379a00000000000000000000000000000000000000000000000000000000081526004018080602001828103825260208152602001807f506c61796572206973206e6f742070617274206f6620746869732067616d652e81525060200191505060405180910390fd5b600360098111156113e657fe5b8160020160149054906101000a900460ff16600981111561140357fe5b14801561145f57503373ffffffffffffffffffffffffffffffffffffffff168160040160009054906101000a900473ffffffffffffffffffffffffffffffffffffffff1673ffffffffffffffffffffffffffffffffffffffff16145b156115cc5760008160040160006101000a81548173ffffffffffffffffffffffffffffffffffffffff021916908373ffffffffffffffffffffffffffffffffffffffff16021790555060018160020160146101000a81548160ff021916908360098111156114c957fe5b02179055507f69a86737236eeecf726cada45ad10ccf981ea5727bf276fca8c1fe41d5031626600182600001548360020160149054906101000a900460ff166000803373ffffffffffffffffffffffffffffffffffffffff1673ffffffffffffffffffffffffffffffffffffffff16815260200190815260200160002060000154604051808515151515815260200184815260200183600981111561156a57fe5b60ff168152602001826000191660001916815260200180602001828103825260018152602001807f4f000000000000000000000000000000000000000000000000000000000000008152506020019550505050505060405180910390a1611ba4565b600260098111156115d957fe5b8160020160149054906101000a900460ff1660098111156115f657fe5b14801561165257503373ffffffffffffffffffffffffffffffffffffffff168160050160009054906101000a900473ffffffffffffffffffffffffffffffffffffffff1673ffffffffffffffffffffffffffffffffffffffff16145b156117bf5760008160050160006101000a81548173ffffffffffffffffffffffffffffffffffffffff021916908373ffffffffffffffffffffffffffffffffffffffff16021790555060018160020160146101000a81548160ff021916908360098111156116bc57fe5b02179055507f69a86737236eeecf726cada45ad10ccf981ea5727bf276fca8c1fe41d5031626600182600001548360020160149054906101000a900460ff166000803373ffffffffffffffffffffffffffffffffffffffff1673ffffffffffffffffffffffffffffffffffffffff16815260200190815260200160002060000154604051808515151515815260200184815260200183600981111561175d57fe5b60ff168152602001826000191660001916815260200180602001828103825260018152602001807f58000000000000000000000000000000000000000000000000000000000000008152506020019550505050505060405180910390a1611ba3565b600460098111156117cc57fe5b8160020160149054906101000a900460ff1660098111156117e957fe5b14801561184557503373ffffffffffffffffffffffffffffffffffffffff168160050160009054906101000a900473ffffffffffffffffffffffffffffffffffffffff1673ffffffffffffffffffffffffffffffffffffffff16145b156119b25760008160050160006101000a81548173ffffffffffffffffffffffffffffffffffffffff021916908373ffffffffffffffffffffffffffffffffffffffff16021790555060038160020160146101000a81548160ff021916908360098111156118af57fe5b02179055507f69a86737236eeecf726cada45ad10ccf981ea5727bf276fca8c1fe41d5031626600182600001548360020160149054906101000a900460ff166000803373ffffffffffffffffffffffffffffffffffffffff1673ffffffffffffffffffffffffffffffffffffffff16815260200190815260200160002060000154604051808515151515815260200184815260200183600981111561195057fe5b60ff168152602001826000191660001916815260200180602001828103825260018152602001807f58000000000000000000000000000000000000000000000000000000000000008152506020019550505050505060405180910390a1611ba2565b600460098111156119bf57fe5b8160020160149054906101000a900460ff1660098111156119dc57fe5b148015611a3857503373ffffffffffffffffffffffffffffffffffffffff168160040160009054906101000a900473ffffffffffffffffffffffffffffffffffffffff1673ffffffffffffffffffffffffffffffffffffffff16145b15611ba15760008160040160006101000a81548173ffffffffffffffffffffffffffffffffffffffff021916908373ffffffffffffffffffffffffffffffffffffffff16021790555060028160020160146101000a81548160ff02191690836009811115611aa257fe5b02179055507f69a86737236eeecf726cada45ad10ccf981ea5727bf276fca8c1fe41d5031626600182600001548360020160149054906101000a900460ff166000803373ffffffffffffffffffffffffffffffffffffffff1673ffffffffffffffffffffffffffffffffffffffff168152602001908152602001600020600001546040518085151515158152602001848152602001836009811115611b4357fe5b60ff168152602001826000191660001916815260200180602001828103825260018152602001807f4f000000000000000000000000000000000000000000000000000000000000008152506020019550505050505060405180910390a15b5b5b5b5050565b611bb0615036565b611bb861505a565b600080600060026000878152602001908152602001600020600701600380602002604051908101604052809291906000905b82821015611c6e57838201600380602002604051908101604052809291908260038015611c5a576020028201916000905b82829054906101000a900460ff166002811115611c3457fe5b81526020019060010190602082600001049283019260010382029150808411611c1b5790505b505050505081526020019060010190611bea565b50505050935060009250600091505b6003821015611d0857600090505b6003811015611cfb578382600381101515611ca257fe5b602002015181600381101515611cb457fe5b60200201518584806001019550600981101515611ccd57fe5b60200201906002811115611cdd57fe5b90816002811115611cea57fe5b815250508080600101915050611c8b565b8180600101925050611c7d565b84945050505050919050565b60008060016009811115611d2457fe5b6002600086815260200190815260200160002060020160149054906101000a900460ff166009811115611d5357fe5b10151515611dc9576040517f08c379a00000000000000000000000000000000000000000000000000000000081526004018080602001828103825260188152602001807f5468652067616d6520646f6573206e6f742065786973742e000000000000000081525060200191505060405180910390fd5b60076009811115611dd657fe5b6002600086815260200190815260200160002060020160149054906101000a900460ff166009811115611e0557fe5b101515611e7a576040517f08c379a000000000000000000000000000000000000000000000000000000000815260040180806020018281038252601d8152602001807f5468652067616d6520697320616c72656164792066696e69736865642e00000081525060200191505060405180910390fd5b600460008154809291906001019190505591506005600083815260200190815260200160002090508181600001819055508381600101819055503481600201819055508215611f3157338160040160006101000a81548173ffffffffffffffffffffffffffffffffffffffff021916908373ffffffffffffffffffffffffffffffffffffffff16021790555060028160030160006101000a81548160ff02191690836005811115611f2757fe5b0217905550611f9b565b338160030160016101000a81548173ffffffffffffffffffffffffffffffffffffffff021916908373ffffffffffffffffffffffffffffffffffffffff16021790555060018160030160006101000a81548160ff02191690836005811115611f9557fe5b02179055505b60068290806001815401808255809150509060018203906000526020600020016000909192909190915055507f74fbadd3f599a2a3281a56da054056461cc39d3a55c72f67f4c82407f5e1cb106001838360030160009054906101000a900460ff16604051808415151515815260200183815260200182600581111561201d57fe5b60ff168152602001806020018281038252600b8152602001807f426574206372656174656400000000000000000000000000000000000000000081525060200194505050505060405180910390a150505050565b6000806001600081548092919060010191905055915060026000838152602001908152602001600020905081816000018190555083816001018160001916905550338160020160006101000a81548173ffffffffffffffffffffffffffffffffffffffff021916908373ffffffffffffffffffffffffffffffffffffffff16021790555060018160020160146101000a81548160ff0219169083600981111561211657fe5b02179055506121258284613546565b60038290806001815401808255809150509060018203906000526020600020016000909192909190915055507f60b766d31bc05f41ce2416fcdd5e11944e9663d5ff20644aa490ea019723c3ad6001838360020160149054906101000a900460ff1660405180841515151581526020018381526020018260098111156121a757fe5b60ff168152602001806020018281038252600c8152602001807f47616d652063726561746564000000000000000000000000000000000000000081525060200194505050505060405180910390a150505050565b60006002600085815260200190815260200160002090506005600981111561221f57fe5b8160020160149054906101000a900460ff16600981111561223c57fe5b101515156122b2576040517f08c379a000000000000000000000000000000000000000000000000000000000815260040180806020018281038252601c8152602001807f5468652067616d65206973206e6f742073746172746564207965742e0000000081525060200191505060405180910390fd5b600760098111156122bf57fe5b8160020160149054906101000a900460ff1660098111156122dc57fe5b101515612351576040517f08c379a000000000000000000000000000000000000000000000000000000000815260040180806020018281038252601d8152602001807f5468652067616d6520697320616c72656164792066696e69736865642e00000081525060200191505060405180910390fd5b600181600301600082825401925050819055506005600981111561237157fe5b8160020160149054906101000a900460ff16600981111561238e57fe5b14156126ac573373ffffffffffffffffffffffffffffffffffffffff168160050160009054906101000a900473ffffffffffffffffffffffffffffffffffffffff1673ffffffffffffffffffffffffffffffffffffffff1614806123f85750600380028160030154145b151561246c576040517f08c379a00000000000000000000000000000000000000000000000000000000081526004018080602001828103825260198152602001807f53656e646572206e6f7420657175616c20706c6179657220580000000000000081525060200191505060405180910390fd5b6000600281111561247957fe5b816007018360038110151561248a57fe5b018460038110151561249857fe5b602091828204019190069054906101000a900460ff1660028111156124b957fe5b141515612554576040517f08c379a00000000000000000000000000000000000000000000000000000000081526004018080602001828103825260328152602001807f4d6f7665206e6f7420706f737369626c6520626563617573652074686520737181526020017f75617265206973206e6f7420656d7074792e000000000000000000000000000081525060400191505060405180910390fd5b6001816007018360038110151561256757fe5b018460038110151561257557fe5b602091828204019190066101000a81548160ff0219169083600281111561259857fe5b021790555060068160020160146101000a81548160ff021916908360098111156125be57fe5b02179055506125f38383868460050160009054906101000a900473ffffffffffffffffffffffffffffffffffffffff16614551565b7fb340287b6335095c2b574661b2cb199b1ff9641315b35ff47060b961adc3bf4c6001858360020160149054906101000a900460ff168686604051808615151515815260200185815260200184600981111561264b57fe5b60ff16815260200183815260200182815260200180602001828103825260018152602001807f5800000000000000000000000000000000000000000000000000000000000000815250602001965050505050505060405180910390a16129c0565b3373ffffffffffffffffffffffffffffffffffffffff168160040160009054906101000a900473ffffffffffffffffffffffffffffffffffffffff1673ffffffffffffffffffffffffffffffffffffffff1614806127105750600380028160030154145b1515612784576040517f08c379a00000000000000000000000000000000000000000000000000000000081526004018080602001828103825260198152602001807f53656e646572206e6f7420657175616c20706c61796572204f0000000000000081525060200191505060405180910390fd5b6000600281111561279157fe5b81600701836003811015156127a257fe5b01846003811015156127b057fe5b602091828204019190069054906101000a900460ff1660028111156127d157fe5b14151561286c576040517f08c379a00000000000000000000000000000000000000000000000000000000081526004018080602001828103825260328152602001807f4d6f7665206e6f7420706f737369626c6520626563617573652074686520737181526020017f75617265206973206e6f7420656d7074792e000000000000000000000000000081525060400191505060405180910390fd5b6002816007018360038110151561287f57fe5b018460038110151561288d57fe5b602091828204019190066101000a81548160ff021916908360028111156128b057fe5b021790555060058160020160146101000a81548160ff021916908360098111156128d657fe5b021790555061290b8383868460040160009054906101000a900473ffffffffffffffffffffffffffffffffffffffff16614551565b7fb340287b6335095c2b574661b2cb199b1ff9641315b35ff47060b961adc3bf4c6001858360020160149054906101000a900460ff168686604051808615151515815260200185815260200184600981111561296357fe5b60ff16815260200183815260200182815260200180602001828103825260018152602001807f4f00000000000000000000000000000000000000000000000000000000000000815250602001965050505050505060405180910390a15b600160038002038160030154148015612a005750600760098111156129e157fe5b8160020160149054906101000a900460ff1660098111156129fe57fe5b105b15612c6f57612c6e816101206040519081016040529081600082015481526020016001820154600019166000191681526020016002820160009054906101000a900473ffffffffffffffffffffffffffffffffffffffff1673ffffffffffffffffffffffffffffffffffffffff1673ffffffffffffffffffffffffffffffffffffffff1681526020016002820160149054906101000a900460ff166009811115612aa657fe5b6009811115612ab157fe5b8152602001600382015481526020016004820160009054906101000a900473ffffffffffffffffffffffffffffffffffffffff1673ffffffffffffffffffffffffffffffffffffffff1673ffffffffffffffffffffffffffffffffffffffff1681526020016005820160009054906101000a900473ffffffffffffffffffffffffffffffffffffffff1673ffffffffffffffffffffffffffffffffffffffff1673ffffffffffffffffffffffffffffffffffffffff1681526020016006820160009054906101000a900473ffffffffffffffffffffffffffffffffffffffff1673ffffffffffffffffffffffffffffffffffffffff1673ffffffffffffffffffffffffffffffffffffffff16815260200160078201600380602002604051908101604052809291906000905b82821015612c6157838201600380602002604051908101604052809291908260038015612c4d576020028201916000905b82829054906101000a900460ff166002811115612c2757fe5b81526020019060010190602082600001049283019260010382029150808411612c0e5790505b505050505081526020019060010190612bdd565b5050505081525050614a8a565b5b50505050565b60606003805480602002602001604051908101604052809291908181526020018280548015612cc357602002820191906000526020600020905b815481526020019060010190808311612caf575b5050505050905090565b600060056000838152602001908152602001600020905060006005811115612cf157fe5b8160030160009054906101000a900460ff166005811115612d0e57fe5b14158015612d44575060036005811115612d2457fe5b8160030160009054906101000a900460ff166005811115612d4157fe5b14155b1515612db8576040517f08c379a00000000000000000000000000000000000000000000000000000000081526004018080602001828103825260178152602001807f5468652062657420646f6573206e6f742065786973742e00000000000000000081525060200191505060405180910390fd5b60016005811115612dc557fe5b8160030160009054906101000a900460ff166005811115612de257fe5b1480612e15575060026005811115612df657fe5b8160030160009054906101000a900460ff166005811115612e1357fe5b145b1515612eaf576040517f08c379a000000000000000000000000000000000000000000000000000000000815260040180806020018281038252602d8152602001807f42657420697320616c72656164792066697865642e20536f6d656f6e6520616c81526020017f7265616479206a6f696e65642e0000000000000000000000000000000000000081525060400191505060405180910390fd5b8060040160009054906101000a900473ffffffffffffffffffffffffffffffffffffffff1673ffffffffffffffffffffffffffffffffffffffff163373ffffffffffffffffffffffffffffffffffffffff161480612f5c57508060030160019054906101000a900473ffffffffffffffffffffffffffffffffffffffff1673ffffffffffffffffffffffffffffffffffffffff163373ffffffffffffffffffffffffffffffffffffffff16145b1515612ff6576040517f08c379a00000000000000000000000000000000000000000000000000000000081526004018080602001828103825260248152602001807f4f6e6c7920746865206f776e65722063616e207769746864726177206869732081526020017f6265742e0000000000000000000000000000000000000000000000000000000081525060400191505060405180910390fd5b8060040160009054906101000a900473ffffffffffffffffffffffffffffffffffffffff1673ffffffffffffffffffffffffffffffffffffffff163373ffffffffffffffffffffffffffffffffffffffff1614156130c2578060040160009054906101000a900473ffffffffffffffffffffffffffffffffffffffff1673ffffffffffffffffffffffffffffffffffffffff166108fc82600201549081150290604051600060405180830381858888f193505050501580156130bc573d6000803e3d6000fd5b50613132565b8060030160019054906101000a900473ffffffffffffffffffffffffffffffffffffffff1673ffffffffffffffffffffffffffffffffffffffff166108fc82600201549081150290604051600060405180830381858888f19350505050158015613130573d6000803e3d6000fd5b505b60038160030160006101000a81548160ff0219169083600581111561315357fe5b02179055505050565b606080606080606080600080613170615089565b6006805490509250826040519080825280602002602001820160405280156131a75781602001602082028038833980820191505090505b509850826040519080825280602002602001820160405280156131d95781602001602082028038833980820191505090505b5097508260405190808252806020026020018201604052801561320b5781602001602082028038833980820191505090505b5096508260405190808252806020026020018201604052801561323d5781602001602082028038833980820191505090505b5095508260405190808252806020026020018201604052801561326f5781602001602082028038833980820191505090505b509450826040519080825280602002602001820160405280156132a15781602001602082028038833980820191505090505b509350600091505b8282101561352957600560006006848154811015156132c457fe5b9060005260206000200154815260200190815260200160002060c060405190810160405290816000820154815260200160018201548152602001600282015481526020016003820160009054906101000a900460ff16600581111561332557fe5b600581111561333057fe5b81526020016003820160019054906101000a900473ffffffffffffffffffffffffffffffffffffffff1673ffffffffffffffffffffffffffffffffffffffff1673ffffffffffffffffffffffffffffffffffffffff1681526020016004820160009054906101000a900473ffffffffffffffffffffffffffffffffffffffff1673ffffffffffffffffffffffffffffffffffffffff1673ffffffffffffffffffffffffffffffffffffffff16815250509050806000015189838151811015156133f557fe5b90602001906020020181815250508060200151888381518110151561341657fe5b90602001906020020181815250508060600151878381518110151561343757fe5b90602001906020020190600581111561344c57fe5b9081600581111561345957fe5b815250508060400151868381518110151561347057fe5b90602001906020020181815250508060a00151858381518110151561349157fe5b9060200190602002019073ffffffffffffffffffffffffffffffffffffffff16908173ffffffffffffffffffffffffffffffffffffffff1681525050806080015184838151811015156134e057fe5b9060200190602002019073ffffffffffffffffffffffffffffffffffffffff16908173ffffffffffffffffffffffffffffffffffffffff168152505081806001019250506132a9565b888888888888985098509850985098509850505050909192939495565b60006002600084815260200190815260200160002090506000600981111561356a57fe5b8160020160149054906101000a900460ff16600981111561358757fe5b141515156135fd576040517f08c379a00000000000000000000000000000000000000000000000000000000081526004018080602001828103825260188152602001807f5468652067616d6520646f6573206e6f742065786973742e000000000000000081525060200191505060405180910390fd5b6004600981111561360a57fe5b8160020160149054906101000a900460ff16600981111561362757fe5b10151561369c576040517f08c379a00000000000000000000000000000000000000000000000000000000081526004018080602001828103825260118152602001807f5468652067616d652069732066756c6c2e00000000000000000000000000000081525060200191505060405180910390fd5b816000803373ffffffffffffffffffffffffffffffffffffffff1673ffffffffffffffffffffffffffffffffffffffff1681526020019081526020016000206000018160001916905550600160098111156136f357fe5b8160020160149054906101000a900460ff16600981111561371057fe5b141561383c57338160040160006101000a81548173ffffffffffffffffffffffffffffffffffffffff021916908373ffffffffffffffffffffffffffffffffffffffff16021790555060038160020160146101000a81548160ff0219169083600981111561377a57fe5b02179055507ffe04f551cef80a299088e40ff2b0e70eb686f48c120239765776fd643638611b600182600001548360020160149054906101000a900460ff168560405180851515151581526020018481526020018360098111156137da57fe5b60ff168152602001826000191660001916815260200180602001828103825260018152602001807f4f000000000000000000000000000000000000000000000000000000000000008152506020019550505050505060405180910390a1613bd4565b6003600981111561384957fe5b8160020160149054906101000a900460ff16600981111561386657fe5b141561399257338160050160006101000a81548173ffffffffffffffffffffffffffffffffffffffff021916908373ffffffffffffffffffffffffffffffffffffffff16021790555060048160020160146101000a81548160ff021916908360098111156138d057fe5b02179055507ffe04f551cef80a299088e40ff2b0e70eb686f48c120239765776fd643638611b600182600001548360020160149054906101000a900460ff1685604051808515151515815260200184815260200183600981111561393057fe5b60ff168152602001826000191660001916815260200180602001828103825260018152602001807f58000000000000000000000000000000000000000000000000000000000000008152506020019550505050505060405180910390a1613bd3565b6002600981111561399f57fe5b8160020160149054906101000a900460ff1660098111156139bc57fe5b1415613bd2573373ffffffffffffffffffffffffffffffffffffffff168160050160009054906101000a900473ffffffffffffffffffffffffffffffffffffffff1673ffffffffffffffffffffffffffffffffffffffff1614151515613ab0576040517f08c379a00000000000000000000000000000000000000000000000000000000081526004018080602001828103825260248152602001807f506c6179657220697320616c72656164792070617274206f662074686973206781526020017f616d652e0000000000000000000000000000000000000000000000000000000081525060400191505060405180910390fd5b338160040160006101000a81548173ffffffffffffffffffffffffffffffffffffffff021916908373ffffffffffffffffffffffffffffffffffffffff16021790555060048160020160146101000a81548160ff02191690836009811115613b1457fe5b02179055507ffe04f551cef80a299088e40ff2b0e70eb686f48c120239765776fd643638611b600182600001548360020160149054906101000a900460ff16856040518085151515158152602001848152602001836009811115613b7457fe5b60ff168152602001826000191660001916815260200180602001828103825260018152602001807f4f000000000000000000000000000000000000000000000000000000000000008152506020019550505050505060405180910390a15b5b5b505050565b6060806060806060806060600080613bef6150f7565b600380549050925082604051908082528060200260200182016040528015613c265781602001602082028038833980820191505090505b50995082604051908082528060200260200182016040528015613c585781602001602082028038833980820191505090505b50985082604051908082528060200260200182016040528015613c8a5781602001602082028038833980820191505090505b50975082604051908082528060200260200182016040528015613cbc5781602001602082028038833980820191505090505b50965082604051908082528060200260200182016040528015613cee5781602001602082028038833980820191505090505b50955082604051908082528060200260200182016040528015613d205781602001602082028038833980820191505090505b50945082604051908082528060200260200182016040528015613d525781602001602082028038833980820191505090505b509350600091505b828210156141db5760026000600384815481101515613d7557fe5b906000526020600020015481526020019081526020016000206101206040519081016040529081600082015481526020016001820154600019166000191681526020016002820160009054906101000a900473ffffffffffffffffffffffffffffffffffffffff1673ffffffffffffffffffffffffffffffffffffffff1673ffffffffffffffffffffffffffffffffffffffff1681526020016002820160149054906101000a900460ff166009811115613e2b57fe5b6009811115613e3657fe5b8152602001600382015481526020016004820160009054906101000a900473ffffffffffffffffffffffffffffffffffffffff1673ffffffffffffffffffffffffffffffffffffffff1673ffffffffffffffffffffffffffffffffffffffff1681526020016005820160009054906101000a900473ffffffffffffffffffffffffffffffffffffffff1673ffffffffffffffffffffffffffffffffffffffff1673ffffffffffffffffffffffffffffffffffffffff1681526020016006820160009054906101000a900473ffffffffffffffffffffffffffffffffffffffff1673ffffffffffffffffffffffffffffffffffffffff1673ffffffffffffffffffffffffffffffffffffffff16815260200160078201600380602002604051908101604052809291906000905b82821015613fe657838201600380602002604051908101604052809291908260038015613fd2576020028201916000905b82829054906101000a900460ff166002811115613fac57fe5b81526020019060010190602082600001049283019260010382029150808411613f935790505b505050505081526020019060010190613f62565b5050505081525050905080600001518a8381518110151561400357fe5b90602001906020020181815250508060600151898381518110151561402457fe5b90602001906020020190600981111561403957fe5b9081600981111561404657fe5b815250508060200151888381518110151561405d57fe5b9060200190602002019060001916908160001916815250508060400151878381518110151561408857fe5b9060200190602002019073ffffffffffffffffffffffffffffffffffffffff16908173ffffffffffffffffffffffffffffffffffffffff1681525050600080826040015173ffffffffffffffffffffffffffffffffffffffff1673ffffffffffffffffffffffffffffffffffffffff16815260200190815260200160002060000154868381518110151561411857fe5b9060200190602002019060001916908160001916815250508060c00151858381518110151561414357fe5b9060200190602002019073ffffffffffffffffffffffffffffffffffffffff16908173ffffffffffffffffffffffffffffffffffffffff16815250508060a00151848381518110151561419257fe5b9060200190602002019073ffffffffffffffffffffffffffffffffffffffff16908173ffffffffffffffffffffffffffffffffffffffff16815250508180600101925050613d5a565b89898989898989995099509950995099509950995050505090919293949596565b60006020528060005260406000206000915090508060000154905081565b60006002600083815260200190815260200160002090506000600981111561423e57fe5b8160020160149054906101000a900460ff16600981111561425b57fe5b141515156142d1576040517f08c379a00000000000000000000000000000000000000000000000000000000081526004018080602001828103825260188152602001807f5468652067616d6520646f6573206e6f742065786973742e000000000000000081525060200191505060405180910390fd5b600460098111156142de57fe5b8160020160149054906101000a900460ff1660098111156142fb57fe5b141515614396576040517f08c379a00000000000000000000000000000000000000000000000000000000081526004018080602001828103825260258152602001807f4e6f7420656e6f75676820706c617965727320746f207374617274207468652081526020017f67616d652e00000000000000000000000000000000000000000000000000000081525060400191505060405180910390fd5b3373ffffffffffffffffffffffffffffffffffffffff168160020160009054906101000a900473ffffffffffffffffffffffffffffffffffffffff1673ffffffffffffffffffffffffffffffffffffffff16141515614483576040517f08c379a00000000000000000000000000000000000000000000000000000000081526004018080602001828103825260278152602001807f4f6e6c79207468652067616d65206f776e65722063616e20737461727420746881526020017f652067616d652e0000000000000000000000000000000000000000000000000081525060400191505060405180910390fd5b60058160020160146101000a81548160ff021916908360098111156144a457fe5b02179055507fa71ac739ffb26bad40493af378bd9354a98e591c0dc81bb52cf4de1a78e393706001838360020160149054906101000a900460ff1660405180841515151581526020018381526020018260098111156144ff57fe5b60ff16815260200180602001828103825260168152602001807f67616d6520686173206265656e20737461727465642e0000000000000000000081525060200194505050505060405180910390a15050565b600061455b61505a565b60008060026000878152602001908152602001600020935060016003600202038460030154101561458b57614a80565b83600701600380602002604051908101604052809291906000905b8282101561462a57838201600380602002604051908101604052809291908260038015614616576020028201916000905b82829054906101000a900460ff1660028111156145f057fe5b815260200190600101906020826000010492830192600103820291508084116145d75790505b5050505050815260200190600101906145a6565b505050509250836007018760038110151561464157fe5b018860038110151561464f57fe5b602091828204019190069054906101000a900460ff169150600090505b60038110156147585781600281111561468157fe5b838260038110151561468f57fe5b6020020151896003811015156146a157fe5b602002015160028111156146b157fe5b1415156146bd57614758565b600160030381141561474b57848460060160006101000a81548173ffffffffffffffffffffffffffffffffffffffff021916908373ffffffffffffffffffffffffffffffffffffffff16021790555061471582614b25565b8460020160146101000a81548160ff0219169083600981111561473457fe5b02179055506147468460000154614b59565b614a80565b808060010191505061466c565b600090505b60038110156148495781600281111561477257fe5b838860038110151561478057fe5b60200201518260038110151561479257fe5b602002015160028111156147a257fe5b1415156147ae57614849565b600160030381141561483c57848460060160006101000a81548173ffffffffffffffffffffffffffffffffffffffff021916908373ffffffffffffffffffffffffffffffffffffffff16021790555061480682614b25565b8460020160146101000a81548160ff0219169083600981111561482557fe5b02179055506148378460000154614b59565b614a80565b808060010191505061475d565b8688141561494357600090505b60038110156149425781600281111561486b57fe5b838260038110151561487957fe5b60200201518260038110151561488b57fe5b6020020151600281111561489b57fe5b1415156148a757614942565b600160030381141561493557848460060160006101000a81548173ffffffffffffffffffffffffffffffffffffffff021916908373ffffffffffffffffffffffffffffffffffffffff1602179055506148ff82614b25565b8460020160146101000a81548160ff0219169083600981111561491e57fe5b02179055506149308460000154614b59565b614a80565b8080600101915050614856565b5b60016003038789011415614a4957600090505b6003811015614a485781600281111561496b57fe5b838960038110151561497957fe5b60200201518260016003030360038110151561499157fe5b602002015160028111156149a157fe5b1415156149ad57614a48565b6001600303811415614a3b57848460060160006101000a81548173ffffffffffffffffffffffffffffffffffffffff021916908373ffffffffffffffffffffffffffffffffffffffff160217905550614a0582614b25565b8460020160146101000a81548160ff02191690836009811115614a2457fe5b0217905550614a368460000154614b59565b614a80565b8080600101915050614956565b5b6003800284600301541415614a7f5760098460020160146101000a81548160ff02191690836009811115614a7957fe5b02179055505b5b5050505050505050565b600080600091505b6003821015614b1f57600090505b6003811015614b125760006002811115614ab657fe5b83610100015183600381101515614ac957fe5b602002015182600381101515614adb57fe5b60200201516002811115614aeb57fe5b1415614b0557614b00836000015182846121fb565b614b20565b8080600101915050614aa0565b8180600101925050614a92565b5b505050565b600060016002811115614b3457fe5b826002811115614b4057fe5b1415614b4f5760079050614b54565b600890505b919050565b600080600091505b600680549050821015614ff95760056000600684815481101515614b8157fe5b9060005260206000200154815260200190815260200160002090508281600101541415614fec5760046005811115614bb557fe5b8160030160009054906101000a900460ff166005811115614bd257fe5b1415614e5f5760076009811115614be557fe5b6002600085815260200190815260200160002060020160149054906101000a900460ff166009811115614c1457fe5b1415614c98578060040160009054906101000a900473ffffffffffffffffffffffffffffffffffffffff1673ffffffffffffffffffffffffffffffffffffffff166108fc614c6760028460020154614ffe565b9081150290604051600060405180830381858888f19350505050158015614c92573d6000803e3d6000fd5b50614e38565b60086009811115614ca557fe5b6002600085815260200190815260200160002060020160149054906101000a900460ff166009811115614cd457fe5b1415614d58578060030160019054906101000a900473ffffffffffffffffffffffffffffffffffffffff1673ffffffffffffffffffffffffffffffffffffffff166108fc614d2760028460020154614ffe565b9081150290604051600060405180830381858888f19350505050158015614d52573d6000803e3d6000fd5b50614e37565b8060030160019054906101000a900473ffffffffffffffffffffffffffffffffffffffff1673ffffffffffffffffffffffffffffffffffffffff166108fc82600201549081150290604051600060405180830381858888f19350505050158015614dc6573d6000803e3d6000fd5b508060040160009054906101000a900473ffffffffffffffffffffffffffffffffffffffff1673ffffffffffffffffffffffffffffffffffffffff166108fc82600201549081150290604051600060405180830381858888f19350505050158015614e35573d6000803e3d6000fd5b505b5b60058160030160006101000a81548160ff02191690836005811115614e5957fe5b02179055505b60026005811115614e6c57fe5b8160030160009054906101000a900460ff166005811115614e8957fe5b1415614f25578060040160009054906101000a900473ffffffffffffffffffffffffffffffffffffffff1673ffffffffffffffffffffffffffffffffffffffff166108fc82600201549081150290604051600060405180830381858888f19350505050158015614efd573d6000803e3d6000fd5b5060038160030160006101000a81548160ff02191690836005811115614f1f57fe5b02179055505b60016005811115614f3257fe5b8160030160009054906101000a900460ff166005811115614f4f57fe5b1415614feb578060030160019054906101000a900473ffffffffffffffffffffffffffffffffffffffff1673ffffffffffffffffffffffffffffffffffffffff166108fc82600201549081150290604051600060405180830381858888f19350505050158015614fc3573d6000803e3d6000fd5b5060038160030160006101000a81548160ff02191690836005811115614fe557fe5b02179055505b5b8180600101925050614b61565b505050565b6000808314156150115760009050615030565b818302905081838281151561502257fe5b0414151561502c57fe5b8090505b92915050565b61012060405190810160405280600990602082028038833980820191505090505090565b610120604051908101604052806003905b6150736151b0565b81526020019060019003908161506b5790505090565b60c060405190810160405280600081526020016000815260200160008152602001600060058111156150b757fe5b8152602001600073ffffffffffffffffffffffffffffffffffffffff168152602001600073ffffffffffffffffffffffffffffffffffffffff1681525090565b610220604051908101604052806000815260200160008019168152602001600073ffffffffffffffffffffffffffffffffffffffff1681526020016000600981111561513f57fe5b815260200160008152602001600073ffffffffffffffffffffffffffffffffffffffff168152602001600073ffffffffffffffffffffffffffffffffffffffff168152602001600073ffffffffffffffffffffffffffffffffffffffff1681526020016151aa6151d3565b81525090565b606060405190810160405280600390602082028038833980820191505090505090565b610120604051908101604052806003905b6151ec6151b0565b8152602001906001900390816151e457905050905600a165627a7a72305820f861f8d7cb2b7d1de169adced29063e24cb356bac07165b2a2e4f8280ff9120a0029",
  "source": "pragma solidity ^0.4.23;\n//pragma experimental ABIEncoderV2;\n\ncontract TicTacToe {\n\n    using SafeMath for uint;\n\n    // width (number of squares) of a board side\n    uint constant boardSize = 3;\n\n    /*\n    *   Players\n    */\n    mapping(address => Player) public players;        // address = key, Player is value\n\n    struct Player {// will be saved offchain in future\n        bytes32 name;\n        uint[] gameIds;\n    }\n\n    /*\n    *   Games\n    */\n    uint counter = 0;\n    mapping(uint => Game) public games;\n    uint[] openGameIds;\n\n    enum GameState {NOT_EXISTING, EMPTY, WAITING_FOR_O, WAITING_FOR_X, READY, X_HAS_TURN, O_HAS_TURN, WINNER_X, WINNER_O, DRAW}\n    enum SquareState {EMPTY, X, O}\n\n    struct Game {\n        uint gameId;\n        bytes32 name;                                 // will be saved offchain in future\n        address ownerAddr;\n        GameState state;\n        uint moveCounter;\n        address playerOAddr;\n        address playerXAddr;\n        address winnerAddr;\n        SquareState[boardSize][boardSize] board;\n    }\n\n    /*\n    *   Bets\n    */\n    uint betCounter = 0;\n    mapping(uint => Bet) public bets;\n    uint[] openBetIds;\n\n    enum BetState {NOT_EXISTING, MISSING_X_BETTOR, MISSING_O_BETTOR, WITHDRAWN, FIXED, PAYEDOUT}\n\n    struct Bet {\n        uint betId;\n        uint gameId;\n        uint value;\n        BetState state;\n        address bettorOnOAddr;\n        address bettorOnXAddr;\n    }\n\n\n\n    /*\n    *   lobby functions\n    */\n\n    event GameCreated(bool wasSuccess, uint gameId, GameState state, string message);\n    function createGame(bytes32 gameName, bytes32 playerName) public {\n        uint gameId = counter++;\n        Game storage myGame = games[gameId];\n\n        myGame.gameId = gameId;\n        myGame.name = gameName;\n        myGame.ownerAddr = msg.sender;\n        myGame.state = GameState.EMPTY;\n\n        joinGame(gameId, playerName);\n\n        openGameIds.push(gameId);\n\n        emit GameCreated(true, gameId, myGame.state, \"Game created\");\n    }\n\n    function getGameIds() public view returns (uint[] gameIds) {\n        return openGameIds;\n    }\n\n    function getGames() public view returns (uint[] gameIds, GameState[] gameStates, bytes32[] gameNames\n    , address[] owners, bytes32[] ownerNames, address[] playerXs, address[] playerOs) {\n\n        uint arrayLenght = openGameIds.length;\n\n        gameIds = new uint[](arrayLenght);\n        gameStates = new GameState[](arrayLenght);\n        gameNames = new bytes32[](arrayLenght);\n        owners = new address[](arrayLenght);\n        ownerNames = new bytes32[](arrayLenght);\n        playerXs = new address[](arrayLenght);\n        playerOs = new address[](arrayLenght);\n\n        for (uint i = 0; i < arrayLenght; i++) {\n            Game memory game = games[openGameIds[i]];\n            gameIds[i] = game.gameId;\n            gameStates[i] = game.state;\n            gameNames[i] = game.name;\n            owners[i] = game.ownerAddr;\n            ownerNames[i] = players[game.ownerAddr].name;\n            playerXs[i] = game.playerXAddr;\n            playerOs[i] = game.playerOAddr;\n        }\n        return (gameIds, gameStates, gameNames, owners, ownerNames, playerXs, playerOs);\n    }\n\n    function getBets() public view returns (uint[] betIds, uint[] gameIds, BetState[] betStates,\n        uint[] values, address[] bettorOnXAddr, address[] bettorOnOAddr) {\n\n        uint arrayLenght = openBetIds.length;\n\n        betIds = new uint[](arrayLenght);\n        gameIds = new uint[](arrayLenght);\n        betStates = new BetState[](arrayLenght);\n        values = new uint[](arrayLenght);\n        bettorOnXAddr = new address[](arrayLenght);\n        bettorOnOAddr = new address[](arrayLenght);\n\n        for (uint i = 0; i < arrayLenght; i++) {\n            Bet memory bet = bets[openBetIds[i]];\n            betIds[i] = bet.betId;\n            gameIds[i] = bet.gameId;\n            betStates[i] = bet.state;\n            values[i] = bet.value;\n            bettorOnXAddr[i] = bet.bettorOnXAddr;\n            bettorOnOAddr[i] = bet.bettorOnOAddr;\n        }\n        return (betIds, gameIds, betStates, values, bettorOnXAddr, bettorOnOAddr);\n    }\n\n//    function getBettorAddresses() public view returns (uint[] betIds, address[] bettorOnXAddr, address[] bettorOnOAddr) {\n//\n//        uint arrayLenght = openBetIds.length;\n//\n//        betIds = new uint[](arrayLenght);\n//        bettorOnXAddr = new address[](arrayLenght);\n//        bettorOnOAddr = new address[](arrayLenght);\n//\n//        for (uint i = 0; i < arrayLenght; i++) {\n//            Bet memory bet = bets[openBetIds[i]];\n//            betIds[i] = bet.betId;\n//            bettorOnXAddr[i] = bet.bettorOnXAddr;\n//            bettorOnOAddr[i] = bet.bettorOnOAddr;\n//        }\n//        return (betIds, bettorOnXAddr, bettorOnOAddr);\n//    }\n\n    event Joined(bool wasSuccess, uint gameId, GameState state, bytes32 playerName, string symbol);\n    function joinGame(uint gameId, bytes32 playerName) public {\n        Game storage game = games[gameId];\n\n        require(game.state != GameState.NOT_EXISTING, \"The game does not exist.\");\n        require(game.state < GameState.READY, \"The game is full.\");\n\n        players[msg.sender].name = playerName;\n\n        if (game.state == GameState.EMPTY) {\n            game.playerOAddr = msg.sender;\n            game.state = GameState.WAITING_FOR_X;\n\n            emit Joined(true, game.gameId, game.state, playerName, \"O\");\n        }\n        else if (game.state == GameState.WAITING_FOR_X) {\n//            require(game.playerOAddr != msg.sender, \"Player is already part of this game.\");\n\n            game.playerXAddr = msg.sender;\n            game.state = GameState.READY;\n\n            emit Joined(true, game.gameId, game.state, playerName, \"X\");\n        }\n        else if (game.state == GameState.WAITING_FOR_O) {\n            require(game.playerXAddr != msg.sender, \"Player is already part of this game.\");\n\n            game.playerOAddr = msg.sender;\n            game.state = GameState.READY;\n\n            emit Joined(true, game.gameId, game.state, playerName, \"O\");\n        }\n    }\n\n    event Left(bool wasSuccess, uint gameId, GameState state, bytes32 playerName, string symbol);\n    function leaveGame(uint gameId) public {\n        Game storage game = games[gameId];\n        require(game.state != GameState.NOT_EXISTING, \"The game does not exist.\");\n        require(game.state <= GameState.READY, \"The game is already started.\");\n        require(game.playerOAddr == msg.sender || game.playerXAddr == msg.sender, \"Player is not part of this game.\");\n\n        if (game.state == GameState.WAITING_FOR_X && game.playerOAddr == msg.sender) {\n            game.playerOAddr = address(0);\n            game.state = GameState.EMPTY;\n            emit Left(true, game.gameId, game.state, players[msg.sender].name, \"O\");\n        }\n        else if (game.state == GameState.WAITING_FOR_O && game.playerXAddr == msg.sender) {\n            game.playerXAddr = address(0);\n            game.state = GameState.EMPTY;\n            emit Left(true, game.gameId, game.state, players[msg.sender].name, \"X\");\n        }\n        else if (game.state == GameState.READY && game.playerXAddr == msg.sender) {\n            game.playerXAddr = address(0);\n            game.state = GameState.WAITING_FOR_X;\n            emit Left(true, game.gameId, game.state, players[msg.sender].name, \"X\");\n        }\n        else if (game.state == GameState.READY && game.playerOAddr == msg.sender) {\n            game.playerOAddr = address(0);\n            game.state = GameState.WAITING_FOR_O;\n            emit Left(true, game.gameId, game.state, players[msg.sender].name, \"O\");\n        }\n    }\n\n    event GameStarted(bool wasSuccess, uint gameId, GameState state, string message);\n    function startGame(uint gameId) public {\n        Game storage game = games[gameId];\n\n        require(game.state != GameState.NOT_EXISTING, \"The game does not exist.\");\n        require(game.state == GameState.READY, \"Not enough players to start the game.\");\n        require(game.ownerAddr == msg.sender, \"Only the game owner can start the game.\");\n\n        game.state = GameState.X_HAS_TURN;\n        emit GameStarted(true, gameId, game.state, \"game has been started.\");\n    }\n\n    function getBoard(uint gameId) public view returns (SquareState[boardSize * boardSize] boardRep) {     // multidimensional arrays cannot be returned easily\n        SquareState[boardSize][boardSize] memory board = games[gameId].board;\n        uint i = 0;\n        for (uint y = 0; y < boardSize; y++) {\n            for (uint x = 0; x < boardSize; x++) {\n                boardRep[i++] = board[y][x];\n            }\n        }\n        return boardRep;\n    }\n\n\n    /*\n    *   during play functions\n    */\n\n    event MoveMade(bool success, uint gameId, GameState state, uint x, uint y, string symbol);\n    function playMove(uint gameId, uint x, uint y) public {\n        Game storage game = games[gameId];\n\n        require(game.state >= GameState.X_HAS_TURN, \"The game is not started yet.\");\n        require(game.state < GameState.WINNER_X, \"The game is already finished.\");\n\n        game.moveCounter += 1;\n\n        if (game.state == GameState.X_HAS_TURN) {\n\n            require(game.playerXAddr == msg.sender\n                    || game.moveCounter == boardSize * boardSize      // last move made automatically\n                    , \"Sender not equal player X\");\n            require(game.board[y][x] == SquareState.EMPTY, \"Move not possible because the square is not empty.\");\n\n            game.board[y][x] = SquareState.X;\n            game.state = GameState.O_HAS_TURN;\n            checkForWinner(x, y, gameId, game.playerXAddr);\n\n            emit MoveMade(true, gameId, game.state, x, y, \"X\");\n        }\n        else {\n\n            require(game.playerOAddr == msg.sender\n                    || game.moveCounter == boardSize * boardSize      // last move made automatically\n                    , \"Sender not equal player O\");\n            require(game.board[y][x] == SquareState.EMPTY, \"Move not possible because the square is not empty.\");\n\n            game.board[y][x] = SquareState.O;\n            game.state = GameState.X_HAS_TURN;\n            checkForWinner(x, y, gameId, game.playerOAddr);\n\n            emit MoveMade(true, gameId, game.state, x, y, \"O\");\n        }\n\n        if (game.moveCounter == boardSize * boardSize - 1 && game.state < GameState.WINNER_X) {\n            doLastMoveAutomatically(game);\n        }\n    }\n\n    function doLastMoveAutomatically(Game game) private {\n        for (uint y = 0; y < boardSize; y++) {\n            for (uint x = 0; x < boardSize; x++) {\n                if (game.board[y][x] == SquareState.EMPTY) {\n                    playMove(game.gameId, x, y);\n                    return;\n                }\n            }\n        }\n    }\n\n    function checkForWinner(uint x, uint y, uint gameId, address currentPlayer) private {\n        Game storage game = games[gameId];\n\n        //is winning already possible?\n        if (game.moveCounter < 2 * boardSize - 1) {\n            return;\n        }\n\n        SquareState[boardSize][boardSize] memory board = game.board;\n        SquareState symbol = game.board[y][x];\n\n        //check column\n        for (uint i = 0; i < boardSize; i++) {\n            if (board[i][x] != symbol) {\n                break;\n            }\n            else if (i == (boardSize - 1)) {\n                game.winnerAddr = currentPlayer;\n                game.state = getGameState(symbol);\n                payoutBets(game.gameId);\n                return;\n            }\n        }\n\n        //check row\n        for (i = 0; i < boardSize; i++) {\n            if (board[y][i] != symbol) {\n                break;\n            }\n            else if (i == (boardSize - 1)) {\n                game.winnerAddr = currentPlayer;\n                game.state = getGameState(symbol);\n                payoutBets(game.gameId);\n                return;\n            }\n        }\n\n        //check diagonal\n        if (x == y) {\n            for (i = 0; i < boardSize; i++) {\n                if (board[i][i] != symbol) {\n                    break;\n                }\n                else if (i == (boardSize - 1)) {\n                    game.winnerAddr = currentPlayer;\n                    game.state = getGameState(symbol);\n                    payoutBets(game.gameId);\n                    return;\n                }\n            }\n        }\n\n        // check anti diagonal\n        if (x + y == (boardSize - 1)) {\n            for (i = 0; i < boardSize; i++) {\n                if (board[x][boardSize - 1 - i] != symbol) {//!equalStrings(board[x][(boardSize-1) - 1], symbol)) {\n                    break;\n                }\n                else if (i == (boardSize - 1)) {\n                    game.winnerAddr = currentPlayer;\n                    game.state = getGameState(symbol);\n                    payoutBets(game.gameId);\n                    return;\n                }\n            }\n        }\n\n        //check for draw\n        if (game.moveCounter == boardSize * boardSize) {\n            game.state = GameState.DRAW;\n        }\n    }\n\n    function getGameState(SquareState symbol) private pure returns (GameState state) {\n        if (symbol == SquareState.X)\n            return GameState.WINNER_X;\n        else\n            return GameState.WINNER_O;\n    }\n\n\n\n    /*\n    *   bet functions\n    */\n\n    event BetCreated(bool wasSuccess, uint betId, BetState state, string message);\n    function createBet(uint gameId, bool bettingOnX) public payable {\n\n        require(games[gameId].state >= GameState.EMPTY, \"The game does not exist.\");\n        require(games[gameId].state < GameState.WINNER_X, \"The game is already finished.\");\n\n        uint betId = betCounter++;\n        Bet storage myBet = bets[betId];\n\n        myBet.betId = betId;\n        myBet.gameId = gameId;\n        myBet.value = msg.value;\n\n        // saving bettor\n        if (bettingOnX) {\n            myBet.bettorOnXAddr = msg.sender;\n            myBet.state = BetState.MISSING_O_BETTOR;\n        } else {\n            myBet.bettorOnOAddr = msg.sender;\n            myBet.state = BetState.MISSING_X_BETTOR;\n        }\n\n        openBetIds.push(betId);\n\n        emit BetCreated(true, betId, myBet.state, \"Bet created\");\n    }\n\n    function getBetIds() public view returns (uint[] betIds) {\n        return openBetIds;\n    }\n\n    event JoinedBet(bool wasSuccess, uint betId, BetState state, string symbol);\n    function joinBet(uint betId) payable public {\n\n        Bet storage bet = bets[betId];\n\n        require(bet.state != BetState.NOT_EXISTING, \"The bet does not exist.\");\n        require(bet.state < BetState.WITHDRAWN, \"Not possible to join this bet.\");\n\n        require(msg.value == bet.value, \"Not equal amount of value.\");\n        require(games[bet.gameId].state < GameState.WINNER_X, \"Game is already finished.\");\n\n        if (bet.state == BetState.MISSING_X_BETTOR) {\n            require(bet.bettorOnOAddr != msg.sender, \"Same address on both sides.\");\n            bet.bettorOnXAddr = msg.sender;\n        } else {\n            require(bet.bettorOnXAddr != msg.sender, \"Same address on both sides.\");\n            bet.bettorOnOAddr = msg.sender;\n        }\n        bet.state = BetState.FIXED;\n        emit JoinedBet(true, betId, bet.state, \"Joined Bet\");\n    }\n\n    function withdrawBet(uint betId) public {\n        Bet storage bet = bets[betId];\n\n        require(bet.state != BetState.NOT_EXISTING\n                && bet.state != BetState.WITHDRAWN\n                , \"The bet does not exist.\");\n        require(bet.state == BetState.MISSING_X_BETTOR\n                || bet.state == BetState.MISSING_O_BETTOR\n                , \"Bet is already fixed. Someone already joined.\");\n\n        require(msg.sender == bet.bettorOnXAddr\n                || msg.sender == bet.bettorOnOAddr\n                , \"Only the owner can withdraw his bet.\");\n\n        if (msg.sender == bet.bettorOnXAddr) {\n            (bet.bettorOnXAddr).transfer(bet.value);\n        }\n        else {\n            (bet.bettorOnOAddr).transfer(bet.value);\n        }\n\n        bet.state = BetState.WITHDRAWN;\n    }\n\n    function payoutBets(uint gameId) internal {\n        for (uint i = 0; i < openBetIds.length; i++) {\n\n            Bet storage iBet = bets[openBetIds[i]];\n\n            if (iBet.gameId == gameId) {\n\n                if (iBet.state == BetState.FIXED) {\n\n                    // bettorOnX wins\n                    if (games[gameId].state == GameState.WINNER_X) {\n                        (iBet.bettorOnXAddr).transfer(SafeMath.mul(2, iBet.value));\n\n                    // bettorOnO wins\n                    } else if (games[gameId].state == GameState.WINNER_O) {\n                        (iBet.bettorOnOAddr).transfer(SafeMath.mul(2, iBet.value));\n\n                    // draw\n                    } else {\n                        (iBet.bettorOnOAddr).transfer(iBet.value);\n                        (iBet.bettorOnXAddr).transfer(iBet.value);\n                    }\n                    iBet.state = BetState.PAYEDOUT;\n                }\n\n                // handle not fixed games: transfer value back to owner\n                if (iBet.state == BetState.MISSING_O_BETTOR) {\n                    (iBet.bettorOnXAddr).transfer(iBet.value);\n                    iBet.state = BetState.WITHDRAWN;\n                }\n                if (iBet.state == BetState.MISSING_X_BETTOR) {\n                    (iBet.bettorOnOAddr).transfer(iBet.value);\n                    iBet.state = BetState.WITHDRAWN;\n                }\n            }\n        }\n    }\n}\n\n/*\n*   using SafeMath for proper value calculations\n*/\n//using: https://github.com/OpenZeppelin/openzeppelin-solidity/blob/c63b203c1d1800c9a8b5f51f0b444187fdc6c185/contracts/math/SafeMath.sol\nlibrary SafeMath {\n\n    /**\n    * @dev Multiplies two numbers, throws on overflow.\n    */\n    function mul(uint256 a, uint256 b) internal pure returns (uint256 c) {\n        if (a == 0) {\n            return 0;\n        }\n        c = a * b;\n        assert(c / a == b);\n        return c;\n    }\n\n    /**\n    * @dev Integer division of two numbers, truncating the quotient.\n    */\n    function div(uint256 a, uint256 b) internal pure returns (uint256) {\n        // assert(b > 0); // Solidity automatically throws when dividing by 0\n        // uint256 c = a / b;\n        // assert(a == b * c + a % b); // There is no case in which this doesn't hold\n        return a / b;\n    }\n\n    /**\n    * @dev Subtracts two numbers, throws on overflow (i.e. if subtrahend is greater than minuend).\n    */\n    function sub(uint256 a, uint256 b) internal pure returns (uint256) {\n        assert(b <= a);\n        return a - b;\n    }\n\n    /**\n    * @dev Adds two numbers, throws on overflow.\n    */\n    function add(uint256 a, uint256 b) internal pure returns (uint256 c) {\n        c = a + b;\n        assert(c >= a);\n        return c;\n    }\n}",
  "sourcePath": "/Users/LuckyP/Desktop/UZH/Master/FS18/Blockchain & Overlay Networks/Challenging Task/tic-tac-toe/truffle/contracts/tictactoe.sol",
  "compiler": {
    "name": "solc",
    "version": "0.4.23+commit.124ca40d.Emscripten.clang"
  },
  "schemaVersion": "2.0.0",
  "updatedAt": "2018-05-15T13:45:51.176Z"
}